{
  "contractName": "SimpleRewardDistributor",
  "abi": [
    {
      "inputs": [
        {
          "internalType": "address",
          "name": "token_",
          "type": "address"
        },
        {
          "internalType": "bytes32",
          "name": "merkleRoot_",
          "type": "bytes32"
        }
      ],
      "stateMutability": "nonpayable",
      "type": "constructor"
    },
    {
      "anonymous": false,
      "inputs": [
        {
          "indexed": false,
          "internalType": "uint256",
          "name": "index",
          "type": "uint256"
        },
        {
          "indexed": false,
          "internalType": "address",
          "name": "account",
          "type": "address"
        },
        {
          "indexed": false,
          "internalType": "uint256",
          "name": "amount",
          "type": "uint256"
        }
      ],
      "name": "Claimed",
      "type": "event"
    },
    {
      "inputs": [],
      "name": "merkleRoot",
      "outputs": [
        {
          "internalType": "bytes32",
          "name": "",
          "type": "bytes32"
        }
      ],
      "stateMutability": "view",
      "type": "function"
    },
    {
      "inputs": [],
      "name": "token",
      "outputs": [
        {
          "internalType": "address",
          "name": "",
          "type": "address"
        }
      ],
      "stateMutability": "view",
      "type": "function"
    },
    {
      "inputs": [
        {
          "internalType": "uint256",
          "name": "index",
          "type": "uint256"
        }
      ],
      "name": "isClaimed",
      "outputs": [
        {
          "internalType": "bool",
          "name": "",
          "type": "bool"
        }
      ],
      "stateMutability": "view",
      "type": "function"
    },
    {
      "inputs": [
        {
          "internalType": "uint256",
          "name": "index",
          "type": "uint256"
        },
        {
          "internalType": "address",
          "name": "account",
          "type": "address"
        },
        {
          "internalType": "uint256",
          "name": "amount",
          "type": "uint256"
        },
        {
          "internalType": "bytes32[]",
          "name": "merkleProof",
          "type": "bytes32[]"
        }
      ],
      "name": "claim",
      "outputs": [],
      "stateMutability": "nonpayable",
      "type": "function"
    }
  ],
  "bytecode": "0x60c06040523480156200001157600080fd5b5060405162000cc038038062000cc0833981810160405281019062000037919062000120565b8173ffffffffffffffffffffffffffffffffffffffff1660808173ffffffffffffffffffffffffffffffffffffffff16815250508060a08181525050505062000167565b600080fd5b600073ffffffffffffffffffffffffffffffffffffffff82169050919050565b6000620000ad8262000080565b9050919050565b620000bf81620000a0565b8114620000cb57600080fd5b50565b600081519050620000df81620000b4565b92915050565b6000819050919050565b620000fa81620000e5565b81146200010657600080fd5b50565b6000815190506200011a81620000ef565b92915050565b600080604083850312156200013a57620001396200007b565b5b60006200014a85828601620000ce565b92505060206200015d8582860162000109565b9150509250929050565b60805160a051610b256200019b60003960008181610198015261032701526000818161020701526103740152610b256000f3fe608060405234801561001057600080fd5b506004361061004c5760003560e01c80632e7ba6ef146100515780632eb4a7ab1461006d5780639e34070f1461008b578063fc0c546a146100bb575b600080fd5b61006b6004803603810190610066919061057d565b6100d9565b005b610075610325565b604051610082919061061e565b60405180910390f35b6100a560048036038101906100a09190610639565b610349565b6040516100b29190610681565b60405180910390f35b6100c3610372565b6040516100d091906106ab565b60405180910390f35b6100e285610349565b15610122576040517f08c379a000000000000000000000000000000000000000000000000000000000815260040161011990610749565b60405180910390fd5b6000858585604051602001610139939291906107d2565b6040516020818303038152906040528051906020012090506101bd838380806020026020016040519081016040528093929190818152602001838360200280828437600081840152601f19601f820116905080830192505050505050507f000000000000000000000000000000000000000000000000000000000000000083610396565b6101fc576040517f08c379a00000000000000000000000000000000000000000000000000000000081526004016101f390610881565b60405180910390fd5b6102058661044c565b7f000000000000000000000000000000000000000000000000000000000000000073ffffffffffffffffffffffffffffffffffffffff1663a9059cbb86866040518363ffffffff1660e01b81526004016102609291906108b0565b6020604051808303816000875af115801561027f573d6000803e3d6000fd5b505050506040513d601f19601f820116820180604052508101906102a39190610905565b6102e2576040517f08c379a00000000000000000000000000000000000000000000000000000000081526004016102d9906109a4565b60405180910390fd5b7f4ec90e965519d92681267467f775ada5bd214aa92c0dc93d90a5e880ce9ed026868686604051610315939291906109c4565b60405180910390a1505050505050565b7f000000000000000000000000000000000000000000000000000000000000000081565b600080600083815260200190815260200160002060009054906101000a900460ff169050919050565b7f000000000000000000000000000000000000000000000000000000000000000081565b60008082905060005b855181101561043e5760008682815181106103bd576103bc6109fb565b5b602002602001015190508083116103fe5782816040516020016103e1929190610a4b565b60405160208183030381529060405280519060200120925061042a565b8083604051602001610411929190610a4b565b6040516020818303038152906040528051906020012092505b50808061043690610aa6565b91505061039f565b508381149150509392505050565b600160008083815260200190815260200160002060006101000a81548160ff02191690831515021790555050565b600080fd5b600080fd5b6000819050919050565b61049781610484565b81146104a257600080fd5b50565b6000813590506104b48161048e565b92915050565b600073ffffffffffffffffffffffffffffffffffffffff82169050919050565b60006104e5826104ba565b9050919050565b6104f5816104da565b811461050057600080fd5b50565b600081359050610512816104ec565b92915050565b600080fd5b600080fd5b600080fd5b60008083601f84011261053d5761053c610518565b5b8235905067ffffffffffffffff81111561055a5761055961051d565b5b60208301915083602082028301111561057657610575610522565b5b9250929050565b6000806000806000608086880312156105995761059861047a565b5b60006105a7888289016104a5565b95505060206105b888828901610503565b94505060406105c9888289016104a5565b935050606086013567ffffffffffffffff8111156105ea576105e961047f565b5b6105f688828901610527565b92509250509295509295909350565b6000819050919050565b61061881610605565b82525050565b6000602082019050610633600083018461060f565b92915050565b60006020828403121561064f5761064e61047a565b5b600061065d848285016104a5565b91505092915050565b60008115159050919050565b61067b81610666565b82525050565b60006020820190506106966000830184610672565b92915050565b6106a5816104da565b82525050565b60006020820190506106c0600083018461069c565b92915050565b600082825260208201905092915050565b7f4d65726b6c654469737472696275746f723a2044726f7020616c72656164792060008201527f636c61696d65642e000000000000000000000000000000000000000000000000602082015250565b60006107336028836106c6565b915061073e826106d7565b604082019050919050565b6000602082019050818103600083015261076281610726565b9050919050565b6000819050919050565b61078461077f82610484565b610769565b82525050565b60008160601b9050919050565b60006107a28261078a565b9050919050565b60006107b482610797565b9050919050565b6107cc6107c7826104da565b6107a9565b82525050565b60006107de8286610773565b6020820191506107ee82856107bb565b6014820191506107fe8284610773565b602082019150819050949350505050565b7f4d65726b6c654469737472696275746f723a20496e76616c69642070726f6f6660008201527f2e00000000000000000000000000000000000000000000000000000000000000602082015250565b600061086b6021836106c6565b91506108768261080f565b604082019050919050565b6000602082019050818103600083015261089a8161085e565b9050919050565b6108aa81610484565b82525050565b60006040820190506108c5600083018561069c565b6108d260208301846108a1565b9392505050565b6108e281610666565b81146108ed57600080fd5b50565b6000815190506108ff816108d9565b92915050565b60006020828403121561091b5761091a61047a565b5b6000610929848285016108f0565b91505092915050565b7f4d65726b6c654469737472696275746f723a205472616e73666572206661696c60008201527f65642e0000000000000000000000000000000000000000000000000000000000602082015250565b600061098e6023836106c6565b915061099982610932565b604082019050919050565b600060208201905081810360008301526109bd81610981565b9050919050565b60006060820190506109d960008301866108a1565b6109e6602083018561069c565b6109f360408301846108a1565b949350505050565b7f4e487b7100000000000000000000000000000000000000000000000000000000600052603260045260246000fd5b6000819050919050565b610a45610a4082610605565b610a2a565b82525050565b6000610a578285610a34565b602082019150610a678284610a34565b6020820191508190509392505050565b7f4e487b7100000000000000000000000000000000000000000000000000000000600052601160045260246000fd5b6000610ab182610484565b91507fffffffffffffffffffffffffffffffffffffffffffffffffffffffffffffffff821415610ae457610ae3610a77565b5b60018201905091905056fea26469706673582212205b85292f9e4f2ea4d785060c08729f6242b5c32ae87b82691a7d092a5626741a64736f6c634300080b0033",
  "immutableReferences": {
    "356": [
      {
        "length": 32,
        "start": 519
      },
      {
        "length": 32,
        "start": 884
      }
    ],
    "358": [
      {
        "length": 32,
        "start": 408
      },
      {
        "length": 32,
        "start": 807
      }
    ]
  },
  "source": "// File: @openzeppelin/contracts/token/ERC20/IERC20.sol\n\n// SPDX-License-Identifier: MIT\n\npragma solidity ^0.8.0;\n\nlibrary Strings {\n    bytes16 private constant _HEX_SYMBOLS = \"0123456789abcdef\";\n\n    /**\n     * @dev Converts a `uint256` to its ASCII `string` decimal representation.\n     */\n    function toString(uint256 value) internal pure returns (string memory) {\n        // Inspired by OraclizeAPI's implementation - MIT licence\n        // https://github.com/oraclize/ethereum-api/blob/b42146b063c7d6ee1358846c198246239e9360e8/oraclizeAPI_0.4.25.sol\n\n        if (value == 0) {\n            return \"0\";\n        }\n        uint256 temp = value;\n        uint256 digits;\n        while (temp != 0) {\n            digits++;\n            temp /= 10;\n        }\n        bytes memory buffer = new bytes(digits);\n        while (value != 0) {\n            digits -= 1;\n            buffer[digits] = bytes1(uint8(48 + uint256(value % 10)));\n            value /= 10;\n        }\n        return string(buffer);\n    }\n\n    /**\n     * @dev Converts a `uint256` to its ASCII `string` hexadecimal representation.\n     */\n    function toHexString(uint256 value) internal pure returns (string memory) {\n        if (value == 0) {\n            return \"0x00\";\n        }\n        uint256 temp = value;\n        uint256 length = 0;\n        while (temp != 0) {\n            length++;\n            temp >>= 8;\n        }\n        return toHexString(value, length);\n    }\n\n    /**\n     * @dev Converts a `uint256` to its ASCII `string` hexadecimal representation with fixed length.\n     */\n    function toHexString(uint256 value, uint256 length) internal pure returns (string memory) {\n        bytes memory buffer = new bytes(2 * length + 2);\n        buffer[0] = \"0\";\n        buffer[1] = \"x\";\n        for (uint256 i = 2 * length + 1; i > 1; --i) {\n            buffer[i] = _HEX_SYMBOLS[value & 0xf];\n            value >>= 4;\n        }\n        require(value == 0, \"Strings: hex length insufficient\");\n        return string(buffer);\n    }\n}\n\n/**\n * @dev Interface of the ERC20 standard as defined in the EIP.\n */\ninterface IERC20 {\n    /**\n     * @dev Returns the amount of tokens in existence.\n     */\n    function totalSupply() external view returns (uint256);\n\n    /**\n     * @dev Returns the amount of tokens owned by `account`.\n     */\n    function balanceOf(address account) external view returns (uint256);\n\n    /**\n     * @dev Moves `amount` tokens from the caller's account to `recipient`.\n     *\n     * Returns a boolean value indicating whether the operation succeeded.\n     *\n     * Emits a {Transfer} event.\n     */\n    function transfer(address recipient, uint256 amount) external returns (bool);\n\n    /**\n     * @dev Returns the remaining number of tokens that `spender` will be\n     * allowed to spend on behalf of `owner` through {transferFrom}. This is\n     * zero by default.\n     *\n     * This value changes when {approve} or {transferFrom} are called.\n     */\n    function allowance(address owner, address spender) external view returns (uint256);\n\n    /**\n     * @dev Sets `amount` as the allowance of `spender` over the caller's tokens.\n     *\n     * Returns a boolean value indicating whether the operation succeeded.\n     *\n     * IMPORTANT: Beware that changing an allowance with this method brings the risk\n     * that someone may use both the old and the new allowance by unfortunate\n     * transaction ordering. One possible solution to mitigate this race\n     * condition is to first reduce the spender's allowance to 0 and set the\n     * desired value afterwards:\n     * https://github.com/ethereum/EIPs/issues/20#issuecomment-263524729\n     *\n     * Emits an {Approval} event.\n     */\n    function approve(address spender, uint256 amount) external returns (bool);\n\n    /**\n     * @dev Moves `amount` tokens from `sender` to `recipient` using the\n     * allowance mechanism. `amount` is then deducted from the caller's\n     * allowance.\n     *\n     * Returns a boolean value indicating whether the operation succeeded.\n     *\n     * Emits a {Transfer} event.\n     */\n    function transferFrom(address sender, address recipient, uint256 amount) external returns (bool);\n\n    /**\n     * @dev Emitted when `value` tokens are moved from one account (`from`) to\n     * another (`to`).\n     *\n     * Note that `value` may be zero.\n     */\n    event Transfer(address indexed from, address indexed to, uint256 value);\n\n    /**\n     * @dev Emitted when the allowance of a `spender` for an `owner` is set by\n     * a call to {approve}. `value` is the new allowance.\n     */\n    event Approval(address indexed owner, address indexed spender, uint256 value);\n}\n\n/**\n * @dev These functions deal with verification of Merkle trees (hash trees),\n */\nlibrary MerkleProof {\n    /**\n     * @dev Returns true if a `leaf` can be proved to be a part of a Merkle tree\n     * defined by `root`. For this, a `proof` must be provided, containing\n     * sibling hashes on the branch from the leaf to the root of the tree. Each\n     * pair of leaves and each pair of pre-images are assumed to be sorted.\n     */\n    function verify(bytes32[] memory proof, bytes32 root, bytes32 leaf) internal pure returns (bool) {\n        bytes32 computedHash = leaf;\n\n        for (uint256 i = 0; i < proof.length; i++) {\n            bytes32 proofElement = proof[i];\n\n            if (computedHash <= proofElement) {\n                // Hash(current computed hash + current element of the proof)\n                computedHash = keccak256(abi.encodePacked(computedHash, proofElement));\n            } else {\n                // Hash(current element of the proof + current computed hash)\n                computedHash = keccak256(abi.encodePacked(proofElement, computedHash));\n            }\n        }\n\n        // Check if the computed hash (root) is equal to the provided root\n        return computedHash == root;\n    }\n}\n\ncontract SimpleRewardDistributor {\n    event Claimed(uint256 index, address account, uint256 amount);\n\n    address public immutable token;\n    bytes32 public immutable merkleRoot;\n\n    // This is a packed array of booleans.\n    mapping(uint256 => bool) private claimedMap;\n\n    constructor(address token_, bytes32 merkleRoot_) {\n        token = token_;\n        merkleRoot = merkleRoot_;\n    }\n\n    function isClaimed(uint256 index) public view returns (bool) {\n        return claimedMap[index];\n    }\n\n    function _setClaimed(uint256 index) private {\n        claimedMap[index] = true;\n    }\n\n    function claim(uint256 index, address account, uint256 amount, bytes32[] calldata merkleProof) external {\n        require(!isClaimed(index), 'MerkleDistributor: Drop already claimed.');\n\n        // Verify the merkle proof.\n        bytes32 node = keccak256(abi.encodePacked(index, account, amount));\n        require(MerkleProof.verify(merkleProof, merkleRoot, node), 'MerkleDistributor: Invalid proof.');\n\n        // Mark it claimed and send the token.\n        _setClaimed(index);\n        require(IERC20(token).transfer(account, amount), 'MerkleDistributor: Transfer failed.');\n\n        emit Claimed(index, account, amount);\n    }\n}\n",
  "sourcePath": "F:\\Dev\\Defi\\Test\\task\\contract_system\\contracts\\SimpleRewardDistributorFlat.sol",
  "compiler": {
    "name": "solc",
    "version": "0.8.11+commit.d7f03943.Emscripten.clang"
  },
  "schemaVersion": "3.4.3",
  "updatedAt": "2022-02-04T13:54:04.637Z",
  "devdoc": {
    "kind": "dev",
    "methods": {},
    "version": 1
  },
  "userdoc": {
    "kind": "user",
    "methods": {},
    "version": 1
  }
}