{
  "contractName": "Test",
  "abi": [
    {
      "inputs": [
        {
          "internalType": "uint256",
          "name": "id",
          "type": "uint256"
        },
        {
          "internalType": "address",
          "name": "addr",
          "type": "address"
        },
        {
          "internalType": "uint256",
          "name": "amount",
          "type": "uint256"
        }
      ],
      "name": "test",
      "outputs": [
        {
          "internalType": "bytes",
          "name": "",
          "type": "bytes"
        }
      ],
      "stateMutability": "pure",
      "type": "function",
      "constant": true
    }
  ],
  "bytecode": "0x608060405234801561001057600080fd5b50610312806100206000396000f3fe608060405234801561001057600080fd5b506004361061002b5760003560e01c80634b52195314610030575b600080fd5b61004a60048036038101906100459190610128565b610060565b6040516100579190610214565b60405180910390f35b60608383836040516020016100779392919061029f565b60405160208183030381529060405290509392505050565b600080fd5b6000819050919050565b6100a781610094565b81146100b257600080fd5b50565b6000813590506100c48161009e565b92915050565b600073ffffffffffffffffffffffffffffffffffffffff82169050919050565b60006100f5826100ca565b9050919050565b610105816100ea565b811461011057600080fd5b50565b600081359050610122816100fc565b92915050565b6000806000606084860312156101415761014061008f565b5b600061014f868287016100b5565b935050602061016086828701610113565b9250506040610171868287016100b5565b9150509250925092565b600081519050919050565b600082825260208201905092915050565b60005b838110156101b557808201518184015260208101905061019a565b838111156101c4576000848401525b50505050565b6000601f19601f8301169050919050565b60006101e68261017b565b6101f08185610186565b9350610200818560208601610197565b610209816101ca565b840191505092915050565b6000602082019050818103600083015261022e81846101db565b905092915050565b6000819050919050565b61025161024c82610094565b610236565b82525050565b60008160601b9050919050565b600061026f82610257565b9050919050565b600061028182610264565b9050919050565b610299610294826100ea565b610276565b82525050565b60006102ab8286610240565b6020820191506102bb8285610288565b6014820191506102cb8284610240565b60208201915081905094935050505056fea26469706673582212203c41cc1d1a10a87388a82e8d5e7a1c008a173aa02b8260b11c3cda45d57241b664736f6c634300080b0033",
  "immutableReferences": {},
  "source": "\r\n// SPDX-License-Identifier: MIT\r\n\r\npragma solidity ^0.8.0;\r\n\r\ncontract Test {\r\n    function test(uint256 id, address addr, uint256 amount) public pure returns (bytes memory) {\r\n        return abi.encodePacked(id, addr, amount);\r\n    }\r\n}",
  "sourcePath": "F:\\Dev\\Defi\\Test\\task\\contract_system\\contracts\\test.sol",
  "compiler": {
    "name": "solc",
    "version": "0.8.11+commit.d7f03943.Emscripten.clang"
  },
  "schemaVersion": "3.4.3",
  "updatedAt": "2022-02-04T13:54:12.257Z",
  "networkType": "ethereum",
  "devdoc": {
    "kind": "dev",
    "methods": {},
    "version": 1
  },
  "userdoc": {
    "kind": "user",
    "methods": {},
    "version": 1
  }
}